:100000000C945E000C9486000C9486000C94860080
:100010000C9486000C9486000C9486000C94860048
:100020000C9486000C9486000C9486000C94860038
:100030000C9486000C9486000C9486000C94860028
:100040000C944A030C9486000C9486000C94860051
:100050000C9486000C9486000C9486000C94860008
:100060000C9486000C9486000000000024002700F9
:100070002A0000000000250028002B0004040404CE
:100080000404040402020202020203030303030342
:10009000010204081020408001020408102001021F
:1000A00004081020000000080002010000030407FB
:1000B0000000000000000000CC04F40411241FBE66
:1000C000CFEFD8E0DEBFCDBF21E0A6E0B1E001C0B8
:1000D0001D92A337B207E1F711E0A0E0B1E0E0E440
:1000E000FDE002C005900D92A630B107D9F710E0EF
:1000F000CDE5D0E004C02197FE010E945905CC3522
:10010000D107C9F70E9494030C9493060C94000045
:1001100090E0FC01EC55FF4F2491FC01E057FF4FAC
:100120003491FC01E458FF4FE491EE23B9F122230E
:1001300039F1233091F038F42130A9F0223001F563
:1001400084B58F7D12C0273091F02830A1F0243083
:10015000B9F4809180008F7D03C0809180008F77FB
:10016000809380000DC084B58F7784BD09C08091D5
:10017000B0008F7703C08091B0008F7D8093B00076
:10018000F0E0EE0FFF1FEE58FF4FA591B4918FB72F
:10019000F894EC9130953E233C938FBF0895CF9314
:1001A000DF9390E0FC01E057FF4F2491FC01E458FD
:1001B000FF4F8491882361F190E0880F991FFC0123
:1001C000E859FF4FC591D491FC01EE58FF4FA5911E
:1001D000B491611109C09FB7F8948881209582235A
:1001E0008883EC912E230BC0623061F49FB7F894A2
:1001F0003881822F809583238883EC912E2B2C933A
:100200009FBF06C08FB7F894E8812E2B28838FBF3D
:10021000DF91CF9108953FB7F89480910B019091B1
:100220000C01A0910D01B0910E0126B5A89B05C04F
:100230002F3F19F00196A11DB11D3FBFBA2FA92F65
:10024000982F8827820F911DA11DB11DBC01CD01E2
:1002500042E0660F771F881F991F4A95D1F70895CE
:10026000FF920F931F93CF93DF93EC01FF24F3943E
:10027000F60E2885F21679F109851A852150B9F014
:100280006F3F59F430E040E050E06FEF7FEF80E0E7
:1002900090E00E941805B9010CC08F2D90E0982FB6
:1002A00088270197622F70E00E94040502C060E079
:1002B00070E0F8014C815D81CF01801B910B8417A8
:1002C000950740F44081469FC001479F900D11243F
:1002D0009193F0CFF886DF91CF911F910F91FF900E
:1002E00008958F929F92AF92BF92CF92DF92EF923A
:1002F000FF920F931F93CF93DF93FC018281938131
:100300006817790708F04CC04A01AA24BB24B82D0D
:10031000C32ED42EE52EFF24AC2D922F808588236A
:1003200061F0889E40011124B92DC89E60011124FE
:10033000AD2D289FE00111249D2FD684C385E18433
:10034000F284DC1208C09B01220F331F620F731F5F
:100350006E0D7F1D16C0660F771F660F771F6E0D1F
:100360007F1D052F112722273327EB01CD0DD11D2E
:10037000882329F0089F90011124232F01C0202FEA
:1003800028838385EB01C80FD11DB8838485EB01D9
:10039000C80FD11DA8838585FB01E80FF11D90834F
:1003A000DF91CF911F910F91FF90EF90DF90CF9051
:1003B000BF90AF909F908F900895CF92DF92EF9271
:1003C000FF920F931F93CF93DF93CDB7DEB729979B
:1003D0000FB6F894DEBF0FBECDBF8C01DC011996BD
:1003E0008D919C911A97892B09F4A3C00E940B014F
:1003F000F801C784D088E188F288DC01CB018C1930
:100400009D09AE09BF098C329140A105B10570F379
:10041000F894D80114968D919C9115979A838983AD
:100420001996ED91FC911A977F01BFEFEB1AFB0A29
:1004300080818987F80190810388F489E02DD801B3
:1004400055968C91992309F430C09081982B988708
:100450009081809589238F838F818C8388E08B8323
:1004600058856F8149853B812C8189819A81D7018B
:10047000508347FD252F3A952083262F39F0441FBE
:1004800000C000006083000000C0F2CF38E04D9152
:1004900060830000019761F7D8015496FC93EE93B6
:1004A000539749873B832C833AC09081982B988738
:1004B0009081809589238F838F818E8388E08D83BF
:1004C00058856F8149853D812E8189819A81D70127
:1004D000508347FD252F00C000C0208300C000C00E
:1004E00000C000C000C060830000262F3A9541F094
:1004F000441F000000C000C000C000C000C0E8CF22
:1005000038E04D9100C0608300C0019709F7D80121
:100510005496FC93EE93539749873D832E839A8399
:10052000898378940E940B01F8016787708B818B17
:10053000928B29960FB6F894DEBF0FBECDBFDF9128
:10054000CF911F910F91FF90EF90DF90CF90089582
:10055000CF93DF93EC018E819F8197FD06C061E010
:100560000E94CF008E810E94880081E08983DF9104
:10057000CF910895CF93DF93EC0189859A850E94EE
:10058000F4058E819F8197FD05C060E0DF91CF91DA
:100590000C94CF00DF91CF910895CF92DF92EF922C
:1005A000FF920F931F93CF93DF93EC017B018A019E
:1005B000198218861F86188A198A1A8AC90146E084
:1005C000969587954A95E1F7482F43704E87C90164
:1005D00054E0969587955A95E1F783708B87B9011A
:1005E000769567957695679563706C87922F937073
:1005F0009D8791E02F3F310511F008F090E098833E
:10060000481719F084E090E002C083E090E08E9DEE
:1006100060018F9DD00C9E9DD00C1124DD82CC8278
:10062000C6010E945F059A878987009741F0A6015D
:1006300060E070E00E948C06FB82EA8204C01D82AA
:100640001C821B821A821F830E838981882339F0C2
:1006500061E0802F0E94CF00802F0E948800F80167
:10066000E458FF4FE491F0E0EE0FFF1FEE58FF4F0C
:10067000859194919C8B8B8BF801E057FF4FE4910F
:10068000ED8BDF91CF911F910F91FF90EF90DF9055
:10069000CF9008951F920F920FB60F9211242F93AF
:1006A0003F938F939F93AF93BF9380910701909156
:1006B0000801A0910901B0910A013091060123E0DF
:1006C000230F2D3720F40196A11DB11D05C026E88A
:1006D000230F0296A11DB11D2093060180930701EF
:1006E00090930801A0930901B0930A0180910B0136
:1006F00090910C01A0910D01B0910E010196A11DE8
:10070000B11D80930B0190930C01A0930D01B09348
:100710000E01BF91AF919F918F913F912F910F90BB
:100720000FBE0F901F901895CF93DF9300D000D08D
:10073000CDB7DEB7789484B5826084BD84B581601E
:1007400084BD85B5826085BD85B5816085BD80919C
:100750006E00816080936E00109281008091810014
:10076000826080938100809181008160809381000C
:10077000809180008160809380008091B1008460CE
:100780008093B1008091B00081608093B00080912F
:100790007A00846080937A0080917A0082608093EE
:1007A0007A0080917A00816080937A0080917A004B
:1007B000806880937A001092C10081E591E00E94E8
:1007C000A80281E591E00E94DD0162E381E591E00C
:1007D0000E9430018BE391E00E94A8028BE391E03C
:1007E0000E94DD0162E38BE391E00E94300185E22B
:1007F00091E00E94A80285E291E00E94DD0162E39F
:1008000085E291E00E9430018FE091E00E94A80211
:100810008FE091E00E94DD0162E38FE091E00E94B1
:10082000300190E0292E90E0392E2EE1822E912C7D
:10083000A12CB12C80926B0190926C01A0926D0161
:10084000B0926E018092670190926801A092690156
:10085000B0926A010FE110E00150110909F48DC056
:100860006FEF81E591E00E9430016FEF8BE391E043
:100870000E9430016FEF85E291E00E9430016FEF3E
:100880008FE091E00E943001C0906B01D0906C012C
:10089000E0906D01F0906E01360161E0661A71081A
:1008A00020E030E04FEF50E0B30181E591E00E949D
:1008B00071012FEF30E040E050E0B3018BE391E0B5
:1008C0000E94710120E03FEF40E050E0B30185E27B
:1008D00091E00E9471012FEF30E0A901B3018FE098
:1008E00091E00E94710181E591E00E94DD018BE3BE
:1008F00091E00E94DD0185E291E00E94DD018FE040
:1009000091E00E94DD010E940B019B01AC018EE190
:10091000482E512C612C712C29833A834B835C83A4
:100920000E940B0129813A814B815C81DC01CB0162
:10093000821B930BA40BB50B883E9340A105B10518
:1009400048F081E0481A51086108710828513C4F6D
:100950004F4F5F4F4114510461047104E9F681E087
:10096000C81AD108E108F108C0926B01D0926C015D
:10097000E0926D01F0926E016FCF10926B011092B8
:100980006C0110926D0110926E012114310409F472
:1009900051CF0E9400004ECF22E530E042E050E00F
:1009A0006CE370E081E591E00E94CD0222E530E049
:1009B00043E050E06CE370E08BE391E00E94CD02F5
:1009C00022E530E044E050E06CE370E085E291E045
:1009D0000E94CD0222E530E045E050E06CE370E09B
:1009E0008FE091E00C94CD028FE091E00E94BA027A
:1009F00085E291E00E94BA028BE391E00E94BA0284
:100A000081E591E00C94BA02AA1BBB1B51E107C01F
:100A1000AA1FBB1FA617B70710F0A61BB70B881F8E
:100A2000991F5A95A9F780959095BC01CD0108951D
:100A3000052E97FB1EF400940E942F0557FD07D04A
:100A40000E94370507FC03D04EF40C942F055095F7
:100A50004095309521953F4F4F4F5F4F08959095AA
:100A60008095709561957F4F8F4F9F4F0895A1E2BC
:100A70001A2EAA1BBB1BFD010DC0AA1FBB1FEE1F18
:100A8000FF1FA217B307E407F50720F0A21BB30B63
:100A9000E40BF50B661F771F881F991F1A9469F7DF
:100AA00060957095809590959B01AC01BD01CF013B
:100AB0000895EE0FFF1F0590F491E02D0994CF9358
:100AC000DF938230910510F482E090E0E0917101B3
:100AD000F091720120E030E0C0E0D0E0309711F1F9
:100AE0004081518148175907C0F04817590761F4F0
:100AF00082819381209719F09B838A832BC09093E6
:100B000072018093710126C02115310519F0421739
:100B1000530718F49A01BE01DF01EF010280F3814F
:100B2000E02DDCCF2115310509F1281B390B2430CC
:100B3000310590F412968D919C9113976115710572
:100B400021F0FB019383828304C090937201809310
:100B50007101FD01329644C0FD01E20FF31F819344
:100B60009193225031092D933C933AC020916F010B
:100B700030917001232B41F4209102013091030147
:100B80003093700120936F01209100013091010199
:100B90002115310541F42DB73EB740910401509124
:100BA0000501241B350BE0916F01F0917001E217F4
:100BB000F307A0F42E1B3F0B2817390778F0AC0180
:100BC0004E5F5F4F2417350748F04E0F5F1F50935D
:100BD000700140936F018193919302C0E0E0F0E0D7
:100BE000CF01DF91CF9108950F931F93CF93DF93A0
:100BF000009709F48CC0FC01329713821282009195
:100C00007101109172010115110581F4208131816A
:100C1000820F931F20916F013091700128173907BF
:100C200079F5F0937001E0936F0171C0D80140E055
:100C300050E0AE17BF0750F412962D913C911397D8
:100C4000AD012115310509F1D901F3CF9D01DA017B
:100C50003383228360817181860F971F82179307E8
:100C600069F4EC0128813981260F371F2E5F3F4F31
:100C7000318320838A819B8193838283452B29F44E
:100C8000F0937201E093710142C01396FC93EE93CE
:100C90001297ED01499159919E01240F351FE217DA
:100CA000F30771F480819181840F951F029611964C
:100CB0009C938E938281938113969C938E9312972B
:100CC000E0E0F0E0D80112968D919C911397009787
:100CD00019F0F8018C01F6CF8D919C9198012E5F4F
:100CE0003F4F820F931F20916F01309170012817A1
:100CF000390769F4309729F410927201109271014A
:100D000002C0138212821093700100936F01DF9171
:100D1000CF911F910F910895DC0101C06D93415057
:100D20005040E0F7089510E0CDE5D0E004C0FE01AA
:100D30000E9459052196CE35D107C9F7F894FFCF07
:060D4000000073018000B9
:107E0000112484B714BE81FFF0D085E080938100F7
:107E100082E08093C00088E18093C10086E0809377
:107E2000C20080E18093C4008EE0C9D0259A86E02C
:107E300020E33CEF91E0309385002093840096BBD3
:107E4000B09BFECF1D9AA8958150A9F7CC24DD24C4
:107E500088248394B5E0AB2EA1E19A2EF3E0BF2EE7
:107E6000A2D0813461F49FD0082FAFD0023811F036
:107E7000013811F484E001C083E08DD089C08234E0
:107E800011F484E103C0853419F485E0A6D080C0E4
:107E9000853579F488D0E82EFF2485D0082F10E0AE
:107EA000102F00270E291F29000F111F8ED06801E7
:107EB0006FC0863521F484E090D080E0DECF843638
:107EC00009F040C070D06FD0082F6DD080E0C81688
:107ED00080E7D80618F4F601B7BEE895C0E0D1E017
:107EE00062D089930C17E1F7F0E0CF16F0E7DF06D8
:107EF00018F0F601B7BEE89568D007B600FCFDCFD4
:107F0000A601A0E0B1E02C9130E011968C91119780
:107F100090E0982F8827822B932B1296FA010C0160
:107F200087BEE89511244E5F5F4FF1E0A038BF0790
:107F300051F7F601A7BEE89507B600FCFDCF97BE46
:107F4000E89526C08437B1F42ED02DD0F82E2BD052
:107F50003CD0F601EF2C8F010F5F1F4F84911BD097
:107F6000EA94F801C1F70894C11CD11CFA94CF0C13
:107F7000D11C0EC0853739F428D08EE10CD085E9AC
:107F80000AD08FE07ACF813511F488E018D01DD067
:107F900080E101D065CF982F8091C00085FFFCCF94
:107FA0009093C60008958091C00087FFFCCF809118
:107FB000C00084FD01C0A8958091C6000895E0E648
:107FC000F0E098E1908380830895EDDF803219F02E
:107FD00088E0F5DFFFCF84E1DECF1F93182FE3DFCA
:107FE0001150E9F7F2DF1F91089580E0E8DFEE27F6
:047FF000FF270994CA
:027FFE00040479
:0400000300007E007B
:00000001FF
